:020000040800F2
:1000000078070020F1050008F5030008F703000851
:10001000FB030008FF0300080304000800000000C1
:1000200000000000000000000000000007040008BD
:1000300009040008000000000B0400080D0400087B
:100040000B0600080B0600080B0600080B0600084C
:100050000B0600080B0600080B0600080B0600083C
:100060000B0600080B0600080B0600080B0600082C
:100070000B0600080B0600080B0600080B0600081C
:100080000B0600080B0600080B0600080B0600080C
:100090000B0600080B0600080B0600080B060008FC
:1000A0000B0600080B0600080B0600080B060008EC
:1000B0000B0600082F2700080B0600080B06000897
:1000C0000B0600080B0600080B0600080B060008CC
:1000D0000B060008172600080B0600080B06000890
:1000E0000B0600080B0600080B0600080B060008AC
:1000F0000B0600080B0600080B0600080B0600089C
:100100000B0600080B0600080B0600080B0600088B
:100110000B0600080B0600080B0600080B0600087B
:100120000B0600080B0600080B0600080B0600086B
:1001300000F002F800F03AF80AA090E8000C8244BF
:100140008344AAF10107DA4501D100F02FF8AFF29C
:10015000090EBAE80F0013F0010F18BFFB1A43F0A5
:1001600001031847FC4500001C460000103A24BF5C
:1001700078C878C1FAD8520724BF30C830C144BF0C
:1001800004680C607047000000230024002500264E
:10019000103A28BF78C1FBD8520728BF30C148BFEA
:1001A0000B6070471FB51FBD10B510BD03F059F9A6
:1001B0001146FFF7F7FF00F009F803F077F903B4F1
:1001C000FFF7F2FF03BC02F0CBF9000002F058F990
:1001D00002F0C0F94FF4165002F0D1F902F024FBFE
:1001E00002F05EFA03F026F8002141F61F4002F00B
:1001F000DCFB02F0E7FB02F0F7FC02F0F0FA02F0A1
:100200002AFD632141F61F4002F064FA03F0AEF8C4
:10021000ABE00321042003F003F96C490880084691
:10022000008803F07CF906464FF06632684B03F015
:100230008DF9044603F044F966490860032105205E
:1002400003F0EEF8644908800846008803F067F977
:1002500006464FF066325E4B03F078F9044603F031
:100260002FF95E4908600321062003F0D9F85C49A4
:1002700008800846008803F052F906464FF06632BF
:10028000534B03F063F9044603F01AF9554908602B
:100290000321072003F0C4F853490880084600886A
:1002A00003F03DF906464FF06632494B03F04EF934
:1002B000044603F005F94D490860464800680128E6
:1002C00004DA41F2707002F0ACFB0EE041480068C5
:1002D000012804DD41F2707002F0C7FB05E03D48E3
:1002E00000210268102002F0F5FD3C48006801285A
:1002F00004DA4FF47A7002F0DDFB0EE03748006854
:10030000012804DD4FF47A7002F0F9FB05E0334870
:1003100000210268112002F0DDFD3248006801284A
:1003200002DA02F017FC0CE02E480068012802DD1A
:1003300002F021FC05E02B4800210268122002F0A7
:10034000C9FD2A480068012802DD02F025FC0CE006
:1003500026480068012802DA02F031FC05E0234853
:1003600000210268132002F0B5FD52E710B500200D
:1003700002F06AFA1E49087008460078012806D083
:1003800002280BD0032810D004281CD114E04FF40D
:100390007A7002F046FB02F0DDFB15E04FF47A7054
:1003A00002F063FB02F0E7FB0EE04FF47A7002F01C
:1003B00081FB02F0F1FB07E04FF47A7002F09FFB43
:1003C00002F0FDFB00E000BF00BF10BD02000020F6
:1003D00066664A3F0C000020040000201000002048
:1003E0000600002014000020080000201800002053
:1003F00000000020704700BFFEE700BFFEE700BF1F
:10040000FEE700BFFEE77047704770477047000087
:100410000CB50020019000906C48006840F48030DA
:100420006A49086000BF6948006800F40030009025
:100430000198401C0190009818B90198B0F5A06F80
:10044000F1D16248006800F4003010B10120009042
:1004500001E0002000900098012843D15C4800682A
:1004600040F010005A4908600846006820F0030078
:1004700008600846006840F0020008605348406881
:10048000524948600846406848600846406840F461
:10049000806048600846406820F47C104860084648
:1004A000406840F4E81048600846006840F08070FA
:1004B000086000BF4548006800F000700028F9D0CF
:1004C0004248406820F003004049486008464068C0
:1004D00040F00200486000BF3C48406800F00C005B
:1004E0000828F9D10CBD10B5FFF792FF10BD10B56B
:1004F0003648006840F0010034490860084640680A
:10050000344908403149486008460068324908408B
:100510002E4908600846006820F4802008600846DC
:10052000406820F4FE0048604FF41F008860FFF729
:10053000DAFF4FF000602949086010BD10B50021B6
:1005400000200022214B5B6803F00C0121B104293B
:1005500006D0082928D107E0214B224C236027E050
:100560001F4B204C236023E0184B5B6803F4701092
:10057000164B5B6803F48032022303EB904022B9F0
:10058000194B4343174C23600DE0104B5B6803F499
:10059000003323B1144B4343124C236003E0104B50
:1005A0004343104C236003E00D4B0E4C236000BF0F
:1005B00000BF064B5B68C3F303130C4CE15C094BB3
:1005C0001B68CB40074C236010BD000000100240A8
:1005D000002002400000FFF8FFFFF6FE08ED00E0FB
:1005E00000127A001C00002000093D0020000020BD
:1005F0000948804709480047FEE7FEE7FEE7FEE7B7
:10060000FEE7FEE7FEE7FEE7FEE7FEE704480549F2
:10061000054A064B70470000EF040008310100084E
:10062000780100207807002078030020780300205C
:1006300031490143314A1160704770B500210023F0
:100640000F22C47804B32D4C246804F4E064C4F58C
:10065000E064210AC1F10403CA40447804FA03F1BA
:100660008478144021430901254C0678A15504786B
:1006700004F01F050124AC4005786D11AD0005F1B3
:10068000E025C5F8004109E0047804F01F050124C5
:10069000AC401C4D0678761145F8264070BD1A4ACC
:1006A0000A400243154B1B1F1A60704739B1134AA9
:1006B000121D12680243114B1B1D1A6006E00F4AFF
:1006C000121D126882430D4B1B1D1A6070470428CF
:1006D00008D14FF0E021096941F004014FF0E02218
:1006E000116107E04FF0E021096921F004014FF0AA
:1006F000E0221161704700000000FA050CED00E0F7
:1007000000E400E080E100E080FFFF1F10B5044638
:10071000FA48844208D10121401500F055FD00211E
:10072000601500F051FD17E0F548844208D1012121
:10073000001500F049FD0021201500F045FD0BE0FB
:10074000F048844208D10121C80300F03DFD00219A
:100750004FF4004000F038FD10BD30B502460020D7
:1007600000235068E84C20400D790C6844EA0524C9
:10077000204350609068E54C2040D1E902542C435E
:100780004D7944EA450420439060D06A20F470001B
:100790000C7C641EE4B2234340EA0350D06230BDB7
:1007A00000210160017141718160C160012101740A
:1007B000704721B1826842F00102826003E08268E2
:1007C00022F001028260704721B1826842F4807297
:1007D000826003E0826822F480728260704710B504
:1007E0000023CBB21AB144681C43446002E0446861
:1007F0009C43446010BD816841F0080181607047EE
:10080000014600208A6802F008020AB1012000E0D7
:1008100000207047816841F0040181607047014603
:1008200000208A6802F004020AB1012000E00020E2
:10083000704721B1826842F4A002826003E08268BE
:1008400022F4A00282607047014600208A6802F408
:1008500080020AB1012000E00020704710B50A466E
:1008600000210023416821F46041531E41EA4331D5
:10087000416010BD21B1426842F40062426003E071
:10088000426822F4006242607047F0B504460D46AB
:1008900000200021092D11DDE068A5F10A0606EB14
:1008A0004607072606FA07F18843A5F10A0606EB74
:1008B000460603FA06F10843E0600CE0206905EB08
:1008C0004507072606FA07F1884305EB450603FAB4
:1008D00006F108432061072A0FDA606B561E06EB0B
:1008E00086071F2606FA07F18843561E06EB860682
:1008F00005FA06F10843606322E00D2A0FDA206B47
:10090000D61F06EB86071F2606FA07F18843D61F77
:1009100006EB860605FA06F10843206310E0E06A5C
:10092000A2F10D0606EB86071F2606FA07F188439B
:10093000A2F10D0606EB860605FA06F10843E06211
:10094000F0BD21B1826842F48012826003E08268C7
:1009500022F48012826070470146C86C80B27047F2
:1009600066484C300068704721B1426842F48062AA
:10097000426003E0426822F480624260704721B125
:10098000426842F48052426003E0426822F480529E
:10099000426070470A460021816821F4E04111431A
:1009A0008160704721B1826842F40042826003E0B6
:1009B000826822F400428260704721B1826842F46A
:1009C0000212826003E0826822F4021282607047A1
:1009D000014600208A6802F400120AB1012000E0FA
:1009E00000207047F0B5044615460020002200267E
:1009F000092911DDE068A1F10A0707EB470C072779
:100A000007FA0CF29043A1F10A0707EB470703FA34
:100A100007F21043E0600CE0206901EB410C07276E
:100A200007FA0CF2904301EB410703FA07F2104377
:100A30002061A06BC0F30156EF1C06F1010CA7EB7F
:100A40000C0707EB870C1F2707FA0CF29043EF1CEB
:100A500006F1010CA7EB0C0707EB870701FA07F279
:100A60001043A063F0BD10B50A4600210023816B3E
:100A700021F44011531E41EA0351816310BD08B5B2
:100A8000002300930090009B0B440093009B1A608E
:100A900008BD08B5024600200090009201F1280030
:100AA000009B184400900098006880B208BD0A4678
:100AB00000214168164B1940114341607047416263
:100AC000826270470A460021416821F01F011143EC
:100AD0004160704740B109490831096841F400019B
:100AE000064A0832116007E004490831096821F418
:100AF0000001024A083211607047000000240140E2
:100B000000280140003C0140FFFEF0FFFDF7F1FF2F
:100B1000FFFD3FFF0246002013680B400BB1012090
:100B200000E000207047CA430260704770B502467B
:100B30000020002300240B125568CEB205EA0604FB
:100B400015681D4015B10CB1012000E0002070BDFA
:100B500000220A12D34303607047000010B5044618
:100B6000CC48844208D10121042000F02DFB002153
:100B7000042000F029FB46E0C748844208D1012147
:100B8000082000F021FB0021082000F01DFB3AE0C6
:100B9000C248844208D10121102000F015FB002139
:100BA000102000F011FB2EE0BD48844208D1012145
:100BB000202000F009FB0021202000F005FB22E0AE
:100BC000B848844208D10121402000F0FDFA0021FC
:100BD000402000F0F9FA16E0B348844208D1012120
:100BE000802000F0F1FA0021802000F0EDFA0AE008
:100BF000AE48844207D10121801500F0E5FA0021BA
:100C0000A01500F0E1FA10BD10B50121084600F072
:100C1000DBFA0021012000F0D7FA10BD2DE9F041E8
:100C2000024600250026002000230024002791F81A
:100C300003C00CF00F0591F803C00CF0100CBCF1D0
:100C4000000F03D091F802C04CEA050591F800C0EE
:100C5000BCF1000F31D0146800202BE04FF0010CE4
:100C60000CFA00F3B1F800C00CEA03069E4220D152
:100C700083004FF00F0C0CFA03F7BC4305FA03FC9A
:100C80004CEA040491F803C0BCF1280F06D14FF0E0
:100C9000010C0CFA00FCC2F814C00AE091F803C081
:100CA000BCF1480F05D14FF0010C0CFA00FCC2F862
:100CB00010C0401C0828D1D31460B1F800C0BCF1AA
:100CC000FF0F34DD546800202EE000F1080C4FF0D7
:100CD000010808FA0CF3B1F800C00CEA03069E42C2
:100CE00021D183004FF00F0C0CFA03F7BC4305FA37
:100CF00003FC4CEA040491F803C0BCF1280F05D1B1
:100D000000F1080C08FA0CF8C2F8148091F803C03E
:100D1000BCF1480F07D100F1080C4FF0010808FAA8
:100D20000CF8C2F81080401C0828CED35460BDE8EF
:100D3000F0814FF6FF710180022181700421C170A2
:100D400070470246002093680B400BB1012000E081
:100D5000002070470146886880B270470246002034
:100D6000D3680B400BB1012000E000207047014622
:100D7000C86880B2704701617047416170470AB12D
:100D8000016100E041617047C16070474FF48032FB
:100D90000A43826181618261826982697047024689
:100DA0000020434B18684FF68073184040EA021049
:100DB00008433F4B186070473E49C8617047F0B523
:100DC0000A46002300240021002500F00046B6F169
:100DD000004F02D1364EF16901E0354E7168C0F323
:100DE000034583B200F44016B6F5401F08D121F048
:100DF00070612F4E766826F070662D4F7E6012E08F
:100E000000F48016B6F5801F06D1032606FA05F415
:100E1000A14341F0706106E0460D360103FA06F683
:100E2000B14341F0706122B1460D360103FA06F676
:100E3000314300F00046B6F1004F02D11C4EF16183
:100E400001E01B4E7160F0BD30B500228B071C0F16
:100E50000F2303FA04F2164B08338C1053F8243096
:100E60009343134C08348D1044F8253023468C10DE
:100E700053F824308C07240F00FA04F423430C4C5D
:100E800008348D1044F8253030BD0A49DC31086043
:100E90007047000000080140000C014000100140B4
:100EA0000014014000180140001C014000200140D6
:100EB0000000014000002042DF48006840F00100CF
:100EC000DD49086008464068DC490840DA49486066
:100ED00008460068DA490840D749086008460068B3
:100EE00020F4802008600846406820F4FE00486036
:100EF0004FF41F0088607047CF49096821F48031A2
:100F0000CD4A11601146096821F480211160B0F5C5
:100F1000803F03D0B0F5802F0ED106E0C6490968A6
:100F200041F48031C44A116007E0C349096841F4C3
:100F3000A021C14A116000E000BF00BF704710B59A
:100F400001460022002300204A11012A02D1BA4C96
:100F5000236806E0022A02D1B74C236A01E0B64CAE
:100F6000636A01F01F02012494401C400CB101206F
:100F700000E0002010BD38B50020009000240025BE
:100F800000BF3120FFF7DBFF05460098401C0090B2
:100F90000098B0F5A06F01D0002DF2D03120FFF7FE
:100FA000CEFF08B1012400E00024204638BD0146F0
:100FB0000020A14A106820F0F80040EAC10010604B
:100FC0007047A04908607047024600209A4B586855
:100FD00020F47C1042EA01031843974B5860704795
:100FE00098490866704701460020934A506820F0EF
:100FF00003000843506070478F48406800F00C00C1
:101000007047014600208C4A506820F0F0000843E9
:101010005060704701460020874A506820F4E06025
:1010200008435060704701460020834A506820F40E
:10103000605040EAC1005060704729B17E4A527A40
:1010400002437D4B5A7204E07B4A527A82437A4BC8
:101050005A7270477B49D8310860704701460020BA
:10106000754A506820F440400843506070470021A2
:10107000714A20321170704A82F82010012802D083
:1010800004280AD104E001216B4A2032117005E0E6
:101090000521694A2032117000E000BF00BF70478F
:1010A0006949086070476449096A0143624A1162EC
:1010B0007047654944390860704730B50021002207
:1010C000002400235C4D6D6805F00C0121B104295A
:1010D00005D0082923D105E05C4D056022E05B4D79
:1010E00005601FE0544D6D6805F47012524D6D6837
:1010F00005F48034022505EB92421CB9544D55434A
:1011000005600BE04C4D6D6805F400351DB1504D88
:101110005543056002E04D4D5543056002E04B4DDF
:10112000056000BF00BF444D6D6805F0F00109097E
:10113000484D6B5C0568DD4045603F4D6D6805F4CA
:10114000E061090A434D6B5C4568DD4085603A4DBE
:101150006D6805F46051C90A3E4D6B5C4568DD4021
:10116000C560354D6D6805F44041890B3A4D6B5CA7
:10117000C568B5FBF3F5056130BD29B12E4A52694A
:1011800002432D4B5A6104E02B4A526982432A4B99
:101190005A61704729B1284A92690243264B9A61E5
:1011A00004E0254A92698243234B9A61704729B132
:1011B000214AD2690243204BDA6104E01E4AD26917
:1011C00082431D4BDA61704729B11B4AD268024342
:1011D000194BDA6004E0184AD2688243164BDA6091
:1011E000704729B1144A12690243134B1A6104E093
:1011F000114A12698243104B1A61704712494039F3
:10120000086070470F49C86470470B49C871704740
:101210000948406A40F080700749486270470146BB
:101220000020054A92680A400AB1012000E000202F
:101230007047014988727047001002400000FFF8B3
:10124000FFFFF6FE000042428004424200127A0094
:1012500000093D00300000204000002010B5044689
:10126000FE48844208D10121C014FFF7ADFF0021E0
:10127000E014FFF7A9FFC4E0B4F1804F08D10121C9
:101280000846FFF7AEFF00210120FFF7AAFFB8E0F4
:10129000F348844208D101210220FFF7A2FF002178
:1012A0000220FFF79EFFACE0EE48844208D1012106
:1012B0000420FFF796FF00210420FFF792FFA0E033
:1012C000E948844208D101210820FFF78AFF002164
:1012D0000820FFF786FF94E0E448844208D101210A
:1012E0001020FFF77EFF00211020FFF77AFF88E033
:1012F000DF48844208D101212020FFF772FF00213E
:101300002020FFF76EFF7CE0DA48844208D10121FB
:101310004014FFF759FF00216014FFF755FF70E0FC
:10132000D548844209D10121C804FFF74DFF0021AF
:101330004FF40020FFF748FF63E0D048844209D112
:1013400001210805FFF740FF00214FF48010FFF74F
:101350003BFF56E0CA48844209D101214805FFF706
:1013600033FF00214FF40010FFF72EFF49E0C5487E
:10137000844208D101214020FFF733FF00214020A3
:10138000FFF72FFF3DE0C048844208D101218020B3
:10139000FFF727FF00218020FFF723FF31E0BB4844
:1013A000844208D101218015FFF71BFF0021A01501
:1013B000FFF717FF25E0B648844209D10121080450
:1013C000FFF702FF00214FF48030FFF7FDFE18E029
:1013D000B048844209D101214804FFF7F5FE0021FD
:1013E0004FF40030FFF7F0FE0BE0AB48844208D129
:1013F00001218804FFF7E8FE00214FF48020FFF769
:10140000E3FE10BD00220288944B98420ED0994B07
:1014100098420BD0B0F1804F08D0914B984205D044
:10142000904B984202D0904B984204D14FF68F7364
:101430001A404B881A438D4B984207D08C4B9842E8
:1014400004D04FF6FF431A40CB881A4302808B88A2
:1014500083850B880385814B98420BD0854B98423E
:1014600008D08B4B984205D08A4B984202D08A4BC9
:10147000984201D10B7A038601238382704770B5AD
:10148000002400220023058C4FF6FE7635400584AB
:10149000028C8388048B4FF68F752C40B51E2C4030
:1014A0000D882C43751E2A400D892A434D882A43F6
:1014B0006A4DA8420BD06F4DA84208D0744DA84287
:1014C00005D0744DA84202D0734DA84213D14FF6F7
:1014D000F7752A404D892A434FF6FB752A408D88BF
:1014E0002A434FF6FF652B404FF6FF552B408D8961
:1014F0002B43CD892B4383800483CD88858602844A
:1015000070BD70B5002400220023058C4FF6EF76E5
:1015100035400584028C8388048B48F6FF752C4087
:101520004FF6FF452C400D884FF6FF7606EA05255D
:101530002C434FF6DF752A400D8906EA05152A432C
:101540004D8806EA05152A43444DA84202D0494D6C
:10155000A8421DD14FF67F752A404D894FF6FF7680
:1015600006EA05152A434FF6BF752A408D8806EA1C
:1015700005152A434FF6FF352B404FF2FF752B40E0
:101580008D8906EA85052B43CD8906EA85052B431F
:1015900083800483CD880587028470BD70B50024E4
:1015A00000220023058C4FF6FF6635400584028C2F
:1015B0008388848B4FF68F752C404FF6FC752C403A
:1015C0000D882C434FF6FF552A400D894FF6FF76C4
:1015D00006EA05252A434D8806EA05252A431F4DBC
:1015E000A84202D0234DA8421DD14FF2FF752A40D8
:1015F0004D894FF6FF7606EA05252A434FF6FF355B
:101600002A408D8806EA05252A434EF6FF752B40B1
:101610004DF6FF752B408D8906EA05152B43CD89C4
:1016200006EA05152B4383808483CD888587028451
:1016300070BD70B5002200230024058C4EF6FF76A5
:1016400035400584038C8488828B48F6FF752A40D8
:101650004FF6FF452A400D8820E00000002C014095
:101660000004004000080040000C00400010004052
:101670000014004000340140004C01400050014083
:101680000054014000180040001C004000200040B1
:101690000040014000440140004801404FF6FF7601
:1016A00006EA05252A434DF6FF752B400D8906EA0B
:1016B00005352B434D8806EA05352B43FA4DA842E4
:1016C00002D0FA4DA84208D14BF6FF752C408D8907
:1016D0004FF6FF7606EA85152C4384808283CD88F9
:1016E000A0F84050038470BD828B4FF2FF331A4044
:1016F0008283828B4FF6FF7303EA01231A438283AE
:101700007047F0B50C461546002200210026078CD4
:101710004EF6FF7C07EA0C070784828B018C4FF69C
:10172000FF7707EA043640F6FF473A404FF6FF7767
:1017300007EA05273A434FF6FF7707EA03373A43AC
:10174000D94FB8420ED0D94FB8420BD0B0F1804F2C
:1017500008D0D74FB84205D0D64FB84202D0D64FA6
:10176000B84206D14DF6FF77394046F480573943E9
:1017700005E047F6FF57394044F4805739438283E8
:101780000184F0BD828B4FF6F3731A408283828B03
:101790000A4382837047F0B50C46154600220021AB
:1017A0000026078C4FF6FF6C07EA0C070784828B34
:1017B000018C4FF6FF7707EA04264FF60C773A4084
:1017C0004FF6FF7707EA03172F433A43B64FB84265
:1017D0000ED0B64FB8420BD0B0F1804F08D0B44F06
:1017E000B84205D0B34FB84202D0B34FB84206D189
:1017F0004FF6FF57394046F48077394305E04FF202
:10180000FF57394044F48077394382830184F0BD27
:10181000028B4FF2FF331A400283028B4FF6FF73A5
:1018200003EA01231A4302837047F0B50C461546BC
:10183000002200210026078C4FF6EF7C07EA0C07F8
:101840000784028B018C4FF6FF7707EA041640F6F7
:10185000FF473A404FF6FF7707EA03373A434FF620
:10186000FF7707EA05273A438F4FB8420ED08F4FD4
:10187000B8420BD0B0F1804F08D08D4FB84205D0A0
:101880008C4FB84202D08C4FB84206D14FF6DF776A
:10189000394046F01007394305E04FF65F7739408D
:1018A00044F01007394302830184F0BD028B4FF6E8
:1018B000F3731A400283028B0A4302837047F0B528
:1018C0000C46154600220021068C4FF6FE773E405E
:1018D0000684028B018C4FF60C7632407E1C06EAA1
:1018E00003162E433243704EB0420ED06F4EB042BC
:1018F0000BD0B0F1804F08D06D4EB04205D06D4E88
:10190000B04202D06C4EB04206D14FF6FD76314067
:1019100044F00106314305E04FF6F576314044F0DE
:101920000106314302830184F0BD70B505460C46C3
:101930005D4885420ED05D4885420BD0B5F1804FA1
:1019400008D05B48854205D05A48854202D05A48A3
:10195000854200D100E000BF208850B92389A288C9
:1019600061882846FFF7ABFFE1882846FFF79EFF16
:1019700025E0208804280AD12389A2886188284686
:10198000FFF753FFE1882846FFF742FF17E0208862
:1019900008280AD12389A28861882846FFF7FBFE20
:1019A000E1882846FFF7EEFE09E02389A2886188D6
:1019B0002846FFF7A6FEE1882846FFF795FE70BD92
:1019C0002DE9F04105460C4600260127608808B93C
:1019D000022600E00026A088012801D1022700E0AD
:1019E00001272088A0B92389A28861882846FFF7AB
:1019F00066FFE1882846FFF759FF23893A463146BA
:101A00002846FFF712FFE1882846FFF701FF13E0A1
:101A10002389A28861882846FFF707FFE1882846C6
:101A2000FFF7F6FE23893A4631462846FFF747FF7F
:101A3000E1882846FFF73AFFBDE8F0810A884B8825
:101A40001A438B881A43CB881A430B891A434B8954
:101A50001A438B891A43A0F8442070474FF6FF7150
:101A6000818000210180C180418001727047002186
:101A7000018041808180C180018141818181C1815A
:101A80007047002101804180012181800021C180B7
:101A9000018170470021018041808180C1800181E6
:101AA0004181818170470000002C014000340140D9
:101AB0000004004000080040000C004021B10288F2
:101AC00042F00102028004E002884FF6FE731A40E1
:101AD0000280704731B1B0F8442042F40042A0F8CF
:101AE000442005E0B0F84420C2F30E02A0F84420E0
:101AF00070471AB183890B43838102E083898B434A
:101B0000838170478182704741EA0203A0F8483020
:101B100070471AB183890B43838102E083898B4329
:101B20008381704701894FF6F87211400181704737
:101B30000A46002101894FF68F7319401143018134
:101B4000704730B504460D4629462046FFF7F0FFA2
:101B5000208940F00700208130BD2DE9F041044686
:101B60000D4616461F46602D06D13B4601223146E2
:101B70002046FFF75AFE05E03B460122314620464B
:101B8000FFF79DFE29462046FFF7D2FF208940F04F
:101B900007002081BDE8F08130B50C4600210189A5
:101BA000C9B24FF6FF7505EA0325154325432943BE
:101BB000018130BD2DE9F04105460E461746984695
:101BC000002443463A4631462846FFF7E5FF2C8974
:101BD0004FF6F870044044F007044FF68F7004404D
:101BE00044F070042C81BDE8F081F0B504460D4648
:101BF00016461F463B46324629462046FFF7CCFF95
:101C0000208940F480402081F0BD018582827047A8
:101C10000A46002101884FF68F7319401143018055
:101C20007047F0B50C4615461E46002100220023E1
:101C30000189028B038C4FF6F877394021434FF628
:101C4000FC473A4040F201173A434FF6DD773B40FC
:101C50004FF6FF7707EA06172F433B4301810283C4
:101C60000384F0BD0A460021018B4FF68F731940A3
:101C70001143018370470A460021018B48F6FF7328
:101C800019404FF6FF7303EA02231943018370479B
:101C90000A460021818B4FF68F73194011438183CF
:101CA00070470A460021818B48F6FF7319404FF6B2
:101CB000FF7303EA022319438183704721B102882D
:101CC00042F08002028004E002884FF67F731A40DF
:101CD0000280704721B1828842F00402828004E0D1
:101CE00082884FF6FB731A408280704721B1828848
:101CF00042F00802828004E082884FF6F7731A40AF
:101D00008280704721B1828842F00102828004E023
:101D100082884FF6FE731A40828070470A4600217F
:101D2000018B4FF6F77319401143018370470A4640
:101D30000021018B4FF2FF7319404FF6FF7303EA46
:101D400002231943018370470A460021818B4FF615
:101D5000F77319401143818370470A460021818B34
:101D60004FF2FF7319404FF6FF7303EA0223194342
:101D7000818370470A460021018B4FF6FB7319409F
:101D80001143018370470A460021018B4FF6FF3350
:101D900019404FF6FF7303EA02231943018370478A
:101DA0000A460021818B4FF6FB7319401143818352
:101DB00070470A460021818B4FF6FF3319404FF6DA
:101DC000FF7303EA02231943818370470A46002107
:101DD000018B4FF67F7319401143018370470A4608
:101DE0000021018BC1F30E014FF6FF7303EA0223BA
:101DF0001943018370470A460021818B4FF67F7398
:101E000019401143818370470A460021818BC1F339
:101E10000E014FF6FF7303EA0223194381837047D3
:101E20000A460021018C4FF6FD73194011430184CD
:101E300070470A460021018C4FF6F7731940114391
:101E4000018470470A460021018C4FF6DF73194068
:101E50004FF6FF7303EA02131943018470470A46E1
:101E60000021018C4FF67F7319404FF6FF7303EA90
:101E700002131943018470470A460021018C4FF672
:101E8000FF5319404FF6FF7303EA022319430184FD
:101E900070470A460021018C4FF2FF7319404FF63C
:101EA000FF7303EA02231943018470470A460021A5
:101EB000018C4DF6FF7319404FF6FF7303EA0233AE
:101EC00019430184704730B5002301248C40A3B22C
:101ED000048C9C430484048C02FA01F5ADB22C43BB
:101EE000048430BD30B5002304248C40A3B2048C9C
:101EF0009C430484048C02FA01F5ADB22C430484A3
:101F000030BD70B503460020002418461830012566
:101F10008D40ACB21D8CA5431D8409B1082909D19F
:101F200000EB6100056825F0700505600568154344
:101F300005600EE00D1FC5F34E052844056825F425
:101F4000E045056005684FF6FF7606EA0226354350
:101F5000056070BD21B1028842F00202028004E0F7
:101F600002884FF6FD731A400280704721B1028843
:101F700042F00402028004E002884FF6FB731A402C
:101F80000280704721B1828842F08002828004E0A2
:101F900082884FF67F731A408280704702884FF61E
:101FA000F7731A40028002880A43028070478288D1
:101FB0004FF68F731A40828082880A43828070476E
:101FC00002894FF6F8731A40028102890A4302819E
:101FD000704702894FF67F731A40028102890A43D3
:101FE0000281704781847047818570478186704780
:101FF0000187704781877047A0F8401070470288BA
:102000004FF6FF431A40028002880A43028070475D
:102010000146888E70470146088F70470146888FB9
:1020200070470146B1F8400070470146888C704700
:102030000146088D704702460020138A0B400BB101
:10204000012000E000207047CA430282704730B58B
:102050000246002000230024158A05EA0103958921
:1020600005EA010413B10CB1012000E0002030BDED
:10207000CA4302827047000010B50446FB48844200
:1020800009D101218803FFF79FF800214FF4804018
:10209000FFF79AF832E0F648844209D1012148045A
:1020A000FFF79FF800214FF40030FFF79AF825E082
:1020B000F048844209D101218804FFF792F80021F9
:1020C0004FF48020FFF78DF818E0EB48844209D1E7
:1020D0000121C804FFF785F800214FF40020FFF725
:1020E00080F80BE0E548844208D101210805FFF79C
:1020F00078F800214FF48010FFF773F810BD2DE938
:10210000F04786B005460E460024A24600BFA14611
:102110000027B08900B100BF2F462C8A4CF6FF7013
:102120000440F08804432C82AC894EF6F31004403E
:10213000B08831890843718908430443AC81AC8A73
:102140004FF6FF400440B0890443AC8201A8FEF77B
:10215000B4FFC648874202D1DDF810A001E0DDF8E7
:102160000CA0A88900F4004040B10AEBCA0000EBC3
:102170000A1031684900B0FBF1F807E00AEBCA0029
:1021800000EB0A1031688900B0FBF1F86420B8FB5D
:10219000F0F004012009642101FB1089A88900F4F2
:1021A000004040B1322000EBC900B0FBF1F000F07C
:1021B0000700044308E0322000EB09106421B0FB63
:1021C000F1F000F00F0004432C8106B0BDE8F08769
:1021D0004FF41651016000218180C18001810C21E2
:1021E000418100218181704710B502460020108A8C
:1021F0004FF2FF0318400B884C8823438C882343FD
:10220000CC8823431843108210BD002101804180F7
:102210008180C180704721B1828942F4005282815D
:1022200004E082894DF6FF731A4082817047F0B551
:102230000346002400260025002040F66A17B94214
:1022400000D100BF1846C1F3421401F01F06012758
:1022500007FA06F5012C01D10C3004E0022C01D163
:10226000103000E014301AB107682F43076002E015
:102270000768AF430760F0BD1AB1838A0B438382BE
:1022800002E0838A8B4383827047028A4FF6F073A1
:102290001A400282028A0A430282704782894FF200
:1022A000FF731A40828182890A438281704721B17B
:1022B000828942F00202828104E082894FF6FD7336
:1022C0001A4082817047028A4FF6DF731A400282F9
:1022D000028A0A430282704721B1028A42F4804294
:1022E000028204E0028A4BF6FF731A4002827047B2
:1022F000C1F308028280704701468888C0F3080055
:102300007047818941F0010181817047028BD2B20F
:102310000283028B42EA012202837047028B02F49D
:102320007F420283028B0A430283704721B1828A73
:1023300042F02002828204E0828A4FF6DF731A4064
:102340008282704721B1828A42F01002828204E0C8
:10235000828A4FF6EF731A408282704721B1828AD7
:1023600042F00802828204E0828A4FF6F7731A4034
:102370008282704721B1828942F40042828103E067
:102380008289C2F30E028281704721B1828A42F4AF
:102390000062828204E0828A4FF2FF731A408282D6
:1023A0007047828A4FF6FB731A408282828A0A4300
:1023B0008282704721B1828A42F00202828204E066
:1023C000828A4FF6FD731A408282704702460020CF
:1023D000B1F5007F00D100BF13880B400BB1012085
:1023E00000E00020704701F40072B2F5007F00D1D8
:1023F00000BFCA430280704770B502460024002324
:102400000025002040F66A16B14200D100BFC1F39A
:10241000421501F01F03012606FA03F3012D02D134
:102420009689334006E0022D02D1168A334001E03E
:10243000968A33400C12012606FA04F416883440BA
:1024400013B10CB1012000E0002070BD10B50022D6
:10245000002340F66A14A14200D100BF0A120124F1
:102460009440A3B2DC43048010BD0000003801405A
:102470000044004000480040004C00400050004034
:1024800010B56FF00400FEF722F92E4800682E49BF
:10249000B0FBF1F02D4908700846007800EB4001D0
:1024A000C1EBC0104FF6FF7101EAC0002849088057
:1024B00010BD0146254A12784A434FF0E0235A6185
:1024C00000229A611A46126942F001021A6100BFA5
:1024D0004FF0E022106900F001021AB100F48032DE
:1024E000002AF5D04FF0E022126922F001024FF0ED
:1024F000E0231A6100229A6170470146144A12884B
:102500004A434FF0E0235A6100229A611A46126949
:1025100042F001021A6100BF4FF0E022106900F0A2
:1025200001021AB100F48032002AF5D04FF0E02207
:10253000126922F001024FF0E0231A6100229A6131
:10254000704700001C00002000127A0044000020A8
:102550004600002010B54FF4A060FEF769F810BDEA
:10256000014600BF704700BF494A128802F040028E
:10257000002AF9D0C2B2464B1B1D1A80704710B515
:1025800086B00446012144F20400FEF703FE4FF436
:102590000070ADF8140003208DF8160018208DF897
:1025A000170005A93B48FEF739FB4FF48060ADF8F2
:1025B000140004208DF8170005A93648FEF72EFBFD
:1025C00025208DF8000003208DF801008DF8020011
:1025D00001208DF803006846FEF72FF801940020D3
:1025E000ADF80800ADF80A00ADF80C00ADF8100029
:1025F0000C20ADF80E0001A92548FFF780FD01224F
:1026000040F225512248FFF712FE01212048FFF732
:1026100002FE06B010BD10B540F225511C48FFF770
:10262000EBFE10B31A48FFF767FEC4B21A480088E1
:1026300000F40040C8B91848008800F4804060B138
:102640000A2C03D000201449088020E0124800889A
:1026500040F400401049088019E00D2C06D10E48C6
:10266000008840F480400C49088010E00A48008847
:10267000C0F30D0009490C5407480088401C064966
:10268000088008460088C72801DD0020088010BDAA
:1026900000380140000801404C000020500000209C
:1026A00008B501210820FEF775FD0120ADF80000F6
:1026B00010208DF8030003208DF8020069460448BD
:1026C000FEF7ACFA01210248FEF755FB08BD0000F9
:1026D000000C01407FB505460C4601210220FEF7A3
:1026E00066FDADF80850ADF804400020ADF80A00D2
:1026F000ADF8060001A94948FEF784FE0122114603
:102700004648FFF7F6F91D208DF8000000208DF8EF
:10271000010003208DF8020001208DF803006846B7
:10272000FDF78BFF01213D48FFF7C8F97FBD10B5CC
:1027300001213A48FFF78BFC18B101213748FFF718
:1027400097FC10BD08B501210420FEF730FD0121E2
:102750000820FEF71FFD4FF44070ADF80000182070
:102760008DF8030003208DF8020069462C48FEF71F
:1027700055FA08BD00B587B0C720ADF8140041F682
:102780001F40ADF810000020ADF81600ADF81200A3
:1027900004A92448FEF736FE6020ADF800000120B1
:1027A000ADF8020069461F48FEF7F8FE08211D48F3
:1027B000FFF7CAFA0120ADF8020069461948FEF792
:1027C00038FF08211748FFF7C8FA01211548FFF71D
:1027D00075FA01211348FFF771F907B000BD10B574
:1027E000FFF7B0FFFFF7C6FF0D200E493C31088010
:1027F00041F28830FFF781FE05200A494031088008
:1028000041F28830FFF779FE41F28830FFF775FE1C
:1028100041F28830FFF771FE10BD00000004004057
:10282000000C01400008004008B501211020FEF70F
:10283000B1FCF020ADF8000048208DF80300694697
:102840003048FEF7EBF908BD10B5044614B101207D
:102850002D4908702C480078002837D010212948CD
:10286000FEF76FFA70B120212648FEF76AFA48B1E8
:1028700040212448FEF765FA20B180212148FEF767
:1028800060FA18BB0A20FFF738FE00201E490870C6
:1028900010211C48FEF755FA08B9012010BD20216F
:1028A0001848FEF74EFA08B90220F7E7402115480C
:1028B000FEF747FA08B90320F0E780211148FEF738
:1028C00040FA08B90420E9E70020E7E710210D48A5
:1028D000FEF737FA012813D120210A48FEF731FA12
:1028E00001280DD140210748FEF72BFA012807D116
:1028F00080210448FEF725FA012801D10249087019
:102900000020CBE7001001404E00002008B5012157
:102910000846FEF74CFC01210420FEF73BFC0C208E
:10292000ADF8000018208DF8030003208DF8020098
:1029300069462348FEF772F908BD30B587B00546F1
:102940000C46ADF81450ADF810400020ADF816005C
:10295000ADF8120004A94FF08040FEF753FD60204F
:10296000ADF800000020ADF808000120ADF802002D
:1029700069468007FEF712FE0821C806FFF7E4F952
:102980000120ADF8020069468007FEF752FE0821DB
:10299000C806FFF7E2F901218807FFF78FF9012147
:1029A0008807FFF78BF807B030BD70B504460D46B9
:1029B000FFF7ACFF29462046FFF7BFFF70BD0000C0
:1029C0000008014008B501211020FEF7E3FB40F2AA
:1029D0000F10ADF8000010208DF8030003208DF8D3
:1029E000020069465848FEF719F901205749086066
:1029F00000205749C1F8840154490C310860012076
:102A0000091F0860002051492031086000214FF063
:102A10008040FFF7EFFA00214FF08040FFF7ECFA1B
:102A200008BD10B504460120484908600020484907
:102A3000C1F8840145490C3108600120091F086074
:102A400042492031086021468007FFF7D3FA21462A
:102A50004FF08040FFF7D0FA41F28830FFF74DFD8C
:102A600000203B49C1F8A00110BD10B5044600206C
:102A70003649086001203649C1F8840133490C31D8
:102A800008600020091F08600120304920310860DB
:102A900021468007FFF7AEFA21464FF08040FFF74E
:102AA000ABFA41F28830FFF728FD00202849C1F831
:102AB000A00110BD10B50446012024490860002083
:102AC0002349C1F8840121490C3108600120091F04
:102AD00008601E49203108604FF47A618007FFF7D3
:102AE00089FA4FF4FA710807FFF786FA41F2883045
:102AF000FFF703FD00201649C1F8A00110BD10B575
:102B0000044601201149086000201149C1F88401E0
:102B10000E490C3108600120091F08600B49203163
:102B200008604FF4FA718007FFF764FA4FF47A6196
:102B30004806FFF761FA41F28830FFF7DEFC00201B
:102B40000349C1F8A00110BD0010014080012242DC
:102B50000000224210B523480088401C214908800B
:102B600008460088142801DB142008804FF47A708E
:102B7000FFF7C3FC10BD10B51A480088401E194964
:102B8000088008460088052801DC052008804FF4ED
:102B90007A70FFF7B2FC10BD10B51248001D008816
:102BA000401E1049091D088008460088052801DCE0
:102BB000052008804FF47A70FFF79FFC10BD10B518
:102BC0000848001D0088401C0649091D0880084669
:102BD0000088142801DB142008804FF47A70FFF776
:102BE0008CFC10BD3C08004008B501210420FEF714
:102BF000D1FA4FF46040ADF8000028208DF80300B2
:102C000069463D48FEF70AF808BD10B54FF400517B
:102C10003948FEF796F858B93848006808B90120D5
:102C200000E00020354908604FF47A70FFF71DFF7F
:102C30004FF480413048FEF784F858B92F480068B7
:102C400008B9012000E000202C4908604FF47A7098
:102C5000FFF755FF10BD08B501212020FEF79AFAB5
:102C60003820ADF8000048208DF80300694624485C
:102C7000FDF7D4FF08BD10B508212148FEF761F823
:102C8000012809D11D48006808B9012000E0002092
:102C90001A490860FFF75EFF08211948FEF751F84E
:102CA00048B91648006808B9012000E0002013491F
:102CB0000860FFF760FF10211148FEF742F8012875
:102CC00009D10E48006808B9012000E000200B4936
:102CD0000860FFF761FF10210948FEF732F848B994
:102CE0000648006808B9012000E000200349086098
:102CF000FFF765FF10BD0000000801408081214200
:102D00000014014007E04FF4E16100BF0A00A1F1A7
:102D10000101FBD1401E0028F5D170470821012296
:102D2000FE4B1A60002115E00022FD4B1A6000F0F6
:102D3000800222B10122FA4B383B1A6003E00022E4
:102D4000F74B383B1A600122F54B1A604206100E11
:102D50004A1CD1B20829E7DB704708210022EF4B5B
:102D60001A60002115E00022ED4B1A6000F080028D
:102D700022B10122EA4B383B1A6003E00022E84B03
:102D8000383B1A600122E64B1A604206100E4A1CBC
:102D9000D1B20829E7DB0122E04B1A60704730B559
:102DA00004460D4605F1B001C8B2FFF7D6FF102169
:102DB00041EA1410FFF7D1FF04F00F00FFF7CDFF39
:102DC00030BD70B50646002415E004F1B001C8B26C
:102DD000FFF7C3FF0120FFF7C0FF1020FFF7BDFF83
:102DE000002504E03046FFF799FF681CC5B2842D2A
:102DF000F8DB601CC4B2082CE7DB70BD30B50024E2
:102E000015E004F1B001C8B2FFF7A7FF0120FFF7FA
:102E1000A4FF1020FFF7A1FF002504E00020FFF72A
:102E20007DFF681CC5B2842DF8DB601CC4B2082C81
:102E3000E7DB30BD2DE9F0430446884615464FF0E8
:102E400000090026002720E0E85D203800F0FF0997
:102E50007E2C04DD002408F1010000F0FF0841464B
:102E60002046FFF79CFF002609E009EB4901AD4A27
:102E700002EB4101885DFFF751FF701CC6B2062EC0
:102E8000F3DBA01DC4B2781CC7B2E85D0028DBD11B
:102E9000BDE8F083F0B506460F4614460025A4F1C0
:102EA0002000C4B27E2E02DD0026781CC7B239464F
:102EB0003046FFF774FF002509E004EB4401994A0E
:102EC00002EB4101485DFFF729FF681CC5B2062DE2
:102ED000F3DBF0BD2DE9F04105460F461446002610
:102EE000002C07DA2D2239462846FFF7D3FFA81D0C
:102EF000C5B26442002C03DB092C01DC012636E05C
:102F00000A2C03DB632C01DC022630E00A2C04DBF4
:102F1000B4F57A7F01DA032629E0642C05DB42F25E
:102F20000F70844201DC042621E0B4F57A7F04DBD3
:102F30007D48844201DC052619E042F2107084428B
:102F400004DB7A48844201DC062610E07648401C07
:102F5000844204DB7648844201DC072607E073489C
:102F6000401C844203DB7348844200DC0826092E9F
:102F70007ED2DFE806F0A797846E59442F1A050029
:102F80006C48401C94FBF0F100FB11406849491C5F
:102F900090FBF1F0303000F0FF08424639462846F9
:102FA000FFF778FFA81DC5B200BF6148401C94FB25
:102FB000F0F100FB11405D49491C90FBF1F030300D
:102FC00000F0FF08424639462846FFF763FFA81D78
:102FD000C5B200BF5548401C94FBF0F100FB114006
:102FE0005149491C90FBF1F0303000F0FF08424697
:102FF00039462846FFF74EFFA81DC5B200BF4A4814
:10300000401C94FBF0F100FB114042F2107190FB68
:10301000F1F0303000F0FF08424639462846FFF70D
:1030200039FFA81DC5B200BF42F2107094FBF0F149
:1030300000FB11404FF47A7190FBF1F0303000F05A
:10304000FF08424639462846FFF724FFA81DC5B2AF
:1030500000BF4FF47A7094FBF0F100FB1140642143
:1030600090FBF1F0303000F0FF084246394600E0B6
:1030700028E02846FFF70EFFA81DC5B200BF642058
:1030800094FBF0F100FB11400A2190FBF1F030308D
:1030900000F0FF08424639462846FFF7FBFEA81D10
:1030A000C5B200BF0A2094FBF0F100FB11403030A4
:1030B00000F0FF08424639462846FFF7EBFEA81D00
:1030C000C5B200E000BF00BFBDE8F0812DE9F043CC
:1030D00006460F46904600250024A14642E018F817
:1030E00009002038C5B2782E02DD0026781CC7B250
:1030F00039463046FFF753FE002407E004EB051184
:103100000D4A505CFFF70AFE601CC4B2082CF5DBC8
:10311000781CC1B23046FFF742FE0FE0A401234203
:10312000B8812242483B00089F8601003F420F00C1
:103130007F969800FFE0F505703D0008002408E048
:1031400004EB05110831824A505CFFF7E7FD601C73
:10315000C4B2082CF4DB06F10800C6B209F1010084
:1031600000F0FF0918F809000028B8D1BDE8F08385
:103170002DE9F04180460E46174600247D01314678
:103180004046FFF70CFE00BF06E07249485DFFF7BE
:10319000C5FD6D1C601CC4B2102CF6DB701CC1B2E6
:1031A0004046FFF7FCFD002406E06A49485DFFF752
:1031B000B5FD6D1C601CC4B2102CF6DBBDE8F081BF
:1031C0002DE9F04F06460F4690461C46DDF824A038
:1031D0004FF0000BE11704EB5171C910A4EBC101D2
:1031E00031B92046E11704EB5171C1F3C70506E080
:1031F0002046E11704EB5171C910491CCDB23D4680
:1032000014E029463046FFF7CAFDB1460AE05946A8
:103210000BF1010B1AF80100FFF780FD09F1010025
:1032200000F0FF09C145F2DB681CC5B2A542E8DB2E
:10323000BDE8F08F08B501216020FDF7ABFF44F237
:103240000100ADF8000010208DF8030003208DF878
:10325000020069464048FDF7E1FC4FF42070ADF8EC
:10326000000010208DF8030003208DF8020069464D
:103270003A48FDF7D3FC80213848FDF77CFD01205A
:103280003749086000203749C1F89C013220FFF718
:1032900039FD012034490860AE20FFF75EFD0020B3
:1032A000FFF75BFD1020FFF758FD4020FFF755FDAD
:1032B0008120FFF752FDCF20FFF74FFDA120FFF740
:1032C0004CFDC820FFF749FDA620FFF746FDA820CA
:1032D000FFF743FD3F20FFF740FDD320FFF73DFD03
:1032E0000020FFF73AFDD520FFF737FD8020FFF7DC
:1032F00034FDD920FFF731FDF120FFF72EFDDA2054
:10330000FFF72BFD1220FFF728FDDB20FFF725FD3F
:103310004020FFF722FD2020FFF71FFD0220FFF7CE
:103320001CFD8D20FFF719FD1420FFF716FDA420CA
:10333000FFF713FDA620FFF710FDAF20FFF70DFDEF
:103340000020FFF73EFD00210846FFF728FD08BDDD
:10335000703D000848370008001401400018014083
:10336000B8812242000023429C01234200B587B06D
:10337000012148F28000FDF70DFF4FF40040FDF7FA
:103380006DFE4FF47070ADF8040000208DF807005A
:1033900001A92F48FDF742FC2E48FDF7B7F90020A0
:1033A00002908DF80C008DF80D004FF46020049011
:1033B0000020059001208DF8180002A92548FDF78E
:1033C000CCF901212348FDF7F4F92248FDF713FA5F
:1033D00000BF2048FDF714FA0028FAD11D48FDF778
:1033E00019FA00BF1B48FDF71AFA0028FAD107B0F6
:1033F00000BD10B504460723012221461548FDF7FC
:1034000044FA01211348FDF714FA00BF02211148C4
:10341000FDF780FB0028F9D00E48FDF79DFA10BD9E
:103420002DE9F04107460C460025002608E0384605
:10343000FFF7DFFF05440520FFF75FF8701CC6B2F9
:10344000A642F4DBB5FBF4F080B2BDE8F0810000E9
:10345000001C0140003C01407047704770477047B6
:103460007047754600F028F8AE4605006946534699
:1034700020F00700854618B020B5FDF7C7F8BDE875
:1034800020404FF000064FF000074FF000084FF0CB
:10349000000B21F00701AC46ACE8C009ACE8C0095C
:1034A000ACE8C009ACE8C0098D4670470446AFF3EC
:1034B00000802046FCF783FE00487047180100207A
:1034C0004FEA41034FEA5353A3F58063D3F11E0340
:1034D000C8BFD3F1210C0CDD4FF0004242EAC122FB
:1034E00042EA505232FA03FC8CEAE17CACEBE17028
:1034F0007047102BC4BF0020704703F5787CBCF1E7
:10350000FF3F04D06FF0004282EA2100704770B59F
:1035100000F0C6F84992248000207047F2E710F0CE
:10352000004248BF4042B0FA80F310FA03F10AD0DB
:10353000C3F11D0303F580634FEA415002EB0352D0
:1035400002EBD12170474FF000007047DFF848C10F
:1035500070B51CEA111E1EBF1CEA13159EEA0C0F63
:1035600095EA0C0F00F06F8081EA030423EA4C1304
:103570004EEAD47E21EA4C1141F4801143F48013C9
:10358000AE44A1FB024CA0FB0365AEF17F7E361971
:1035900055EB0C05A1FB034C4CF10003A0FB021CF6
:1035A00016EB0C06654153F10003094218BF46F0C3
:1035B000010613F4007F0BD14FEA03314FEA0530C7
:1035C000340341EA155140EA16506FF003020AE055
:1035D0004FEAC3214FEAC520F40241EA555140EABF
:1035E00056506FF0020202EB2E4201EB025585EAC3
:1035F000CE710AD05FEA440C18BF24F0004450F1A9
:10360000000041F1000120EAD47040F2FE7C6245E6
:1036100000D270BDA84214BF4FF080444FF0404428
:10362000002E08BF0024BEF1806FA8BFA1F1C041E9
:10363000BDE8704080F282804FF0000001F1C0418F
:1036400001F0004170479EEA0C0F0CEA131518BFF9
:1036500095EA0C0F06D04FF0000081EA030E0EF041
:10366000004170BD00F01CF88900013E00F007B871
:1036700000F009B84FEA430C5FEA5C5C08D081EACD
:10368000030100F05BB84FEA410C5FEA5C5CF6D1E5
:103690004FF00000014970470000FF070000F87F6D
:1036A0000EF1020E2EF0030E5EF8046B364205D4C6
:1036B000012A43EB030515F5001F12D8012841EB41
:1036C000010C1CF5001F0CD80ED14FEAD17C15F56A
:1036D000001F0CEB4C0C0CF1020C08BF4CEBD37C24
:1036E00004E04FF0080C01E04FEAD37C0CEB4C05F2
:1036F00026FA05F606F00706B6F1040C06D20EEB24
:10370000860CBDE870404CF0010C6047DFE80CF01F
:10371000090B02024FF000414FF00000A1F500211B
:1037200070BD19461046012851EB010418BFD4F5AD
:10373000001484BF002001F0004170BD0808A0F50E
:1037400000114FEA31017047000000000000000046
:103750000000000000000000000000000000000069
:103760000000000000000000000202FAFAAAAAFF0E
:10377000FFAAAAFAFA020200004272723A7A424B97
:103780005B52626213776600203C1CFFFFB0B424DA
:10379000243F3FE4E4242420020203FFFF0001054C
:1037A0001D59C1FF7F010101000000F8F8484C4F8E
:1037B0004B4A4848F8F80000000000FFFF4444442A
:1037C00044444444FFFF0000202424E4E42424244F
:1037D0003010FFFF10F0F000081C1F0B0C0D4F6E97
:1037E000341C0F23607F3F0080C060F8FF07020099
:1037F000FFFFE0703C1C08000000007F7F04060310
:103800003F7F40404078780000000000000000004A
:1038100000000000000000000000000000000000A8
:103820000000000000000000000000000000000098
:103830000000000000000000000000000000000088
:10384000000000000000000010218670007E4A4A3F
:103850004A4A4A7E0000000002FE01407F41417F4B
:1038600041417F41417F40000000FC042424FCA52D
:10387000A6A4FC242424040080601F808042462AE1
:1038800012122A2642C04000080808FF8848009803
:1038900048280A2C48D808000242817F0000404294
:1038A00042427E424242400000504F4A48FF484850
:1038B0004800FC0000FF000000003F0101FF216103
:1038C0003F000F40807F000000908CA4A4A4A5A618
:1038D000A4A4A4A4948C0400008040201807000035
:1038E000003F404040700000000474D4FFD47404D2
:1038F000100CB744B40C04000042437A4342437EA8
:103900004B4B4A4A42430100080808080808F94A94
:103910004C4848C808080800404020100C0300002C
:103920002040403F0000000000202C246474ADA61D
:10393000E43424242C2400000024242515150DFE35
:10394000040D171424642400000000F848484C4B70
:103950004A484848F8000000000000FF444444443E
:1039600044444444FF000000202424E42424242070
:103970001010FF1010F00000081C0B080C054E245E
:10398000100C0320403F0000080808FF88480098FA
:1039900048280A2C48D808000242817F0000404293
:1039A00042427E424242400000504F4A48FF48484F
:1039B0004800FC0000FF000000003F0101FF216102
:1039C0003F000F40807F00000807FAAAAEAAAAA80D
:1039D000ACABAAFE0A02020008088B6A1E0A0A0A99
:1039E0000AFE0A0B08080800106001C6300010101B
:1039F00010FF1010101000000404FE01004161517E
:103A00004D43414151E101004041CE04008040BEA0
:103A1000828282BEC040400000007F2090804043F0
:103A20002C10102C43C0400020212EE40000202048
:103A30002020FF20202020000000007F2010080010
:103A40000000FF00000000000000F848484848FF60
:103A500048484848F800000000000F040404043FF0
:103A6000444444444F40700000000202020202E25B
:103A7000120A060200800000010101010141817F5C
:103A800001010101010101000020202222E2222285
:103A900022E2222222202000004020100C030000FD
:103AA000003F4040404070004020F80F82601E14EC
:103AB00010FF1010101000000000FF0001010101B4
:103AC00001FF010101010100000000007E4848489B
:103AD0004848484848CC080000040404040404048E
:103AE00004244644201F0000849494FF949480246E
:103AF0002424FC1213120000201806FF021C0A02E4
:103B000002023F41414171001010D0FE5090001060
:103B10001010D0FE10101000080601FF0001100860
:103B20000443807F000000009088A7A2A6BAA2F8F4
:103B3000A7A2A6BAA282800000040404040C3404E4
:103B400044847F0404040000000000000000000022
:103B5000002F000000000700070000147F147F14EE
:103B600000242A7F2A120062640813230036495574
:103B7000225000000503000000001C22410000004C
:103B800041221C000014083E08140008083E0808E2
:103B9000000000A06000000808080808000060603D
:103BA0000000002010080402003E5149453E00007C
:103BB000427F4000004261514946002141454B315E
:103BC000001814127F10002745454539003C4A492A
:103BD000493000017109050300364949493600069C
:103BE0004949291E00003636000000005636000004
:103BF000000814224100001414141414000041227F
:103C0000140800020151090600324959513E007C56
:103C10001211127C007F49494936003E4141412240
:103C2000007F4141221C007F49494941007F090929
:103C30000901003E4149497A007F0808087F0000D9
:103C4000417F4100002040413F01007F0814224194
:103C5000007F40404040007F020C027F007F04084C
:103C6000107F003E4141413E007F09090906003EA8
:103C70004151215E007F09192946004649494931D1
:103C80000001017F0101003F4040403F001F2040F4
:103C9000201F003F4038403F0063140814630007B2
:103CA0000870080700615149454300007F41410009
:103CB00000552A552A55000041417F0000040201A9
:103CC0000204004040404040000001020400002087
:103CD00054545478007F48444438003844444420C5
:103CE00000384444487F00385454541800087E0972
:103CF00001020018A4A4A47C007F0804047800003A
:103D0000447D4000004080847D00007F10284400F6
:103D10000000417F4000007C04180478007C080407
:103D2000047800384444443800FC24242418001843
:103D3000242418FC007C080404080048545454202F
:103D400000043F444020003C4040207C001C2040B8
:103D5000201C003C4030403C004428102844001CFB
:103D6000A0A0A07C004464544C44141414141414F3
:103D70000000000000000000000000000000000043
:103D8000000000F8000000000000003330000000D8
:103D900000100C06100C06000000000000000000DF
:103DA00040C07840C0784000043F04043F04040051
:103DB000007088FC08300000001820FF211E000061
:103DC000F008F000E018000000211C031E211E0076
:103DD00000F00888700000001E21232419272110FC
:103DE00010160E000000000000000000000000009F
:103DF000000000E018040200000000071820400046
:103E000000020418E0000000004020180700000035
:103E1000404080F0804040000202010F0102020099
:103E2000000000F0000000000101011F010101007D
:103E3000000000000000000080B0700000000000E2
:103E4000000000000000000000010101010101016B
:103E50000000000000000000003030000000000002
:103E600000000000806018040060180601000000D7
:103E700000E010080810E000000F102020100F00D4
:103E8000001010F8000000000020203F202000005B
:103E900000700808088870000030282422213000B3
:103EA00000300888884830000018202020110E00BB
:103EB0000000C02010F8000000070424243F240064
:103EC00000F80888880808000019212020110E0039
:103ED00000E0108888180000000F112020110E004B
:103EE00000380808C83808000000003F0000000043
:103EF0000070880808887000001C222121221C0004
:103F000000E010080810E0000000312222110F002C
:103F1000000000C0C00000000000003030000000C1
:103F20000000008000000000000080600000000031
:103F3000000080402010080000010204081020004A
:103F40004040404040404000040404040404040095
:103F5000000810204080000000201008040201002A
:103F6000007048080808F00000000030360100002A
:103F7000C030C828E810E0000718272423140B00DD
:103F80000000C038E0000000203C23020227382057
:103F900008F8888888700000203F202020110E003B
:103FA000C030080808083800071820202010080032
:103FB00008F808080810E000203F202020100F001B
:103FC00008F88888E8081000203F202023201800E7
:103FD00008F88888E8081000203F2000030000004F
:103FE000C03008080838000007182020221E0200F0
:103FF00008F808000008F808203F210101213F20AF
:10400000000808F8080800000020203F20200000D9
:1040100000000808F8080800C08080807F000000C9
:1040200008F888C028180800203F20012638200002
:1040300008F8080000000000203F20202020300069
:1040400008F8F800F8F80800203F003F003F200083
:1040500008F830C00008F808203F200007183F008B
:10406000E01008080810E0000F10202020100F00BA
:1040700008F808080808F000203F210101010000AD
:10408000E01008080810E0000F18242438504F00F2
:1040900008F8888888887000203F2000030C3020B2
:1040A00000708808080838000038202121221C00F0
:1040B000180808F8080818000000203F2000000039
:1040C00008F808000008F808001F202020201F0022
:1040D0000878880000C83808000007380E01000082
:1040E000F80800F80008F800033C0700073C03004C
:1040F000081868808068180820302C03032C3020B2
:104100000838C800C83808000000203F2000000020
:1041100010080808C8380800203826212020180078
:10412000000000FE020202000000007F404040004C
:10413000000C30C000000000000000010638C00084
:1041400000020202FE000000004040407F0000002C
:104150000000040202020400000000000000000051
:10416000000000000000000080808080808080804F
:104170000002020400000000000000000000000037
:1041800000008080808000000019242222223F202D
:1041900008F8008080000000003F112020110E0070
:1041A0000000008080800000000E112020201100FF
:1041B000000000808088F800000E112020103F20B1
:1041C0000000808080800000001F22222222130035
:1041D000008080F0888888180020203F2020000080
:1041E0000000808080808000006B94949493600035
:1041F00008F8008080800000203F210000203F2040
:1042000000809898000000000020203F202000003F
:10421000000000809898000000C08080807F00002F
:1042200008F8000080808000203F24022D3020000C
:10423000000808F8000000000020203F20200000B7
:104240008080808080808000203F20003F20003FD1
:104250008080008080800000203F210000203F20DF
:104260000000808080800000001F202020201F0090
:10427000808000808000000080FFA12020110E00BF
:104280000000008080808000000E112020A0FF80B0
:10429000808080008080800020203F21200001005D
:1042A00000008080808080000033242424241900B2
:1042B000008080E0808000000000001F20200000BF
:1042C0008080000000808000001F202020103F2000
:1042D000808080000080808000010E300806010090
:1042E00080800080008080800F300C030C300F0035
:1042F00000808000808080000020312E0E31200060
:10430000808080000080808080818E70180601008F
:1043100000808080808080000021302C22213000AD
:1043200000000000807C020200000000003F4040CE
:1043300000000000FF00000000000000FF0000007F
:104340000002027C800000000040403F00000000AE
:104350000006010102020404000000000000000049
:10436000FFFF030303030303030303030303030325
:10437000030303030303030303030303030303030D
:1043800003030303030303030303030303030303FD
:1043900003030303030303030303030303030303ED
:1043A00003030303030303030303030303030303DD
:1043B00003030303030303030303030303030303CD
:1043C00003030303030303030303030303030303BD
:1043D0000303030303030303030303030303FFFFB5
:1043E000FFFF0000000000000000000000000000CF
:1043F00000000000000000000000000000000000BD
:1044000000000000000000000000000000000000AC
:10441000000000000000000000000000000000009C
:10442000000000000000000000000000000000008C
:10443000000000000000000000000000000000007C
:10444000000000000000000000000000000000006C
:104450000000000000000000000000000000FFFF5E
:10446000FFFF020202020202020202020202020232
:10447000020202020202020202020202020202021C
:10448000020202020202020202020202020202020C
:1044900002020202020202020202020202020202FC
:1044A00002020202020202020202020202020202EC
:1044B00002020202020202020202020202020202DC
:1044C00002020202020202020202020202020202CC
:1044D0000202020202020202020202020202FFFFC2
:1044E000FFFF0000000000000000000000000000CE
:1044F00000000000000000000000000000000000BC
:1045000000000000000000000000000000000000AB
:10451000000000000000000000000000000000009B
:10452000000000000000000000000000000000008B
:10453000000000000000000000000000000000007B
:10454000000000000000000000000000000000006B
:104550000000000000000000000000000000FFFF5D
:10456000FFFF0808080808080808080808080808DD
:1045700008080808080808080808080808080808BB
:1045800008080808080808080808080808080808AB
:10459000080808080808080808080808080808089B
:1045A000080808080808080808080808080808088B
:1045B000080808080808080808080808080808087B
:1045C000080808080808080808080808080808086B
:1045D0000808080808080808080808080808FFFF6D
:1045E000FFFF0000000000000000000000000000CD
:1045F00000000000000000000000000000000000BB
:1046000000000000000000000000000000000000AA
:10461000000000000000000000000000000000009A
:10462000000000000000000000000000000000008A
:10463000000000000000000000000000000000007A
:10464000000000000000000000000000000000006A
:104650000000000000000000000000000000FFFF5C
:10466000FFFF00000000000000000000000000004C
:10467000000000000000000000000000000000003A
:10468000000000000000000000000000000000002A
:10469000000000000000000000000000000000001A
:1046A000000000000000000000000000000000000A
:1046B00000000000000000000000000000000000FA
:1046C00000000000000000000000000000000000EA
:1046D0000000000000000000000000000000FFFFDC
:1046E000FFFFC0C0C0C0C0C0C0C0C0C0C0C0C0C04C
:1046F000C0C0C0C0C0C0C0C0C0C0C0C0C0C0C0C0BA
:10470000C0C0C0C0C0C0C0C0C0C0C0C0C0C0C0C0A9
:10471000C0C0C0C0C0C0C0C0C0C0C0C0C0C0C0C099
:10472000C0C0C0C0C0C0C0C0C0C0C0C0C0C0C0C089
:10473000C0C0C0C0C0C0C0C0C0C0C0C0C0C0C0C079
:10474000C0C0C0C0C0C0C0C0C0C0C0C0C0C0C0C069
:10475000C0C0C0C0C0C0C0C0C0C0C0C0C0C0FFFFDB
:104760008047000800000020500000006C01000895
:10477000D0470008500000202807000088010008EA
:104780000000000000000000000000000000000029
:1047900000000000000000000000000000A24A0429
:1047A00000000000000000000102030406070809E1
:1047B00000000000010203040102030406070809C7
:1047C00002040608000000000000000000000100D4
:0400000508000131BD
:00000001FF
